:020000040800F2
:1000000000070020010100081F150008091400085E
:100010001D150008ED01000865170008000000002C
:100020000000000000000000000000002315000890
:10003000EF01000800000000211500082515000848
:100040001B0100081B0100081B0100081B01000820
:100050001B0100081B0100081B0100081B01000810
:100060001B01000823020008290200081B010008E8
:100070001B0100081B0100081B0100081B010008F0
:100080001B0100081B0100081B0100081B010008E0
:100090001B0100081B0100081B0100082F020008BB
:1000A0001B0100081B0100081B0100081B010008C0
:1000B0001B0100081B0100081B0100081B010008B0
:1000C0001B0100081B0100081B0100081B010008A0
:1000D0001B0100084D170008591700081B010008F4
:1000E0000D0200081B0100081B010008DFF80CD0FE
:1000F00000F06AF800480047251C000800070020AF
:100100000648804706480047FEE7FEE7FEE7FEE7B1
:10011000FEE7FEE7FEE7FEE7FEE7FEE777150008ED
:10012000ED000008202A04DB203A21FA02F0002129
:10013000704721FA02F3D040C2F1200291400843F7
:1001400019467047D2B201E000F8012B491EFBD2DC
:1001500070470022F6E710B513460A4604461946D2
:10016000FFF7F0FF204610BD30B505462A460B4686
:1001700012F8010B13F8014B08B1A042F8D01CB1E2
:10018000002802D06D1CF1E7284630BD421C10F853
:10019000011B0029FBD1801A704710B5002200E036
:1001A000521C835C8C5CA34201D1002BF8D1D8B2E5
:1001B000E1B2401A10BD034611F8012B00F8012BE3
:1001C000002AF9D118467047064C074D06E0E06852
:1001D00040F0010394E8070098471034AC42F6D38E
:1001E000FFF788FF84270008A4270008FEE7704770
:1001F00010B50446FFF7CAFF0021C0B20A4602E06C
:100200006254491CC9B28142FAD310BD10B54FF4F3
:10021000805000F0A9FABDE810404FF4004000F013
:10022000A3BA082000F0A0BA102000F09DBA10B5C3
:10023000202000F099FA402000F096FABDE8104026
:10024000802000F091BA000006490020C8610648ED
:10025000016941F004010161016941F0400101615E
:1002600070470000E002002000200240064A002102
:10027000D16106490A6942F002020A6148610869CF
:1002800040F0400008617047E0020020002002407A
:10029000044B0022DA61044A136943F0010313613D
:1002A00001807047E0020020002002401448002234
:1002B000C168CB06134904D5CA6942F00202CA617B
:1002C0001022C3685B0705D5CB6943F00103CB61FE
:1002D00042F00402C369DB0707D0CB6943F0040393
:1002E000CB61C16921F00101C161A2F580710139C1
:1002F00001D0C2607047C16921F00101C16170473E
:1003000000200240E002002070B5054600F02EFB00
:100310000646114C09E0681C07D025B100F026FB09
:10032000801BA84201D9032070BDE068C007F2D14C
:10033000E068800601D52020E060E068C00605D4B2
:10034000E069C00702D1E068400703D5FFF7AEFFC0
:10035000012070BD002070BD0020024010B586B0A5
:100360000024049400F0A0F9064802900120CDE991
:100370000040039004A9684600F0F8F800F04AF93C
:1003800006B010BD00FC000810B5044600F08CF962
:10039000227800232A49022000F046F92849627891
:1003A0000023091D022000F03FF92549A27800230F
:1003B0000831022000F038F92149E27800230C319D
:1003C000022000F031F91E49227900231031022069
:1003D00000F02AF91A49627900231431022000F052
:1003E00023F91749A27900231831022000F01CF9E3
:1003F0001349E27900231C31022000F015F910495D
:10040000227A00232031022000F00EF90C49627A92
:1004100000232431022000F007F90949A27A0023C1
:100420002831022000F000F90549E27A00232C313E
:10043000022000F0F9F8BDE8104000F0EBB8000031
:1004400000FC000810B50446FFF7D2FE17480078FC
:1004500020701648001D007860701448083000783D
:10046000A07012480C300078E0701048103000780E
:1004700020710E481430007860710C4818300078F4
:10048000A0710A481C300078E071084820300078DC
:1004900020720648243000786072044828300078C2
:1004A000A07202482C300078E07210BD00FC0008F9
:1004B00010B590F821100024022903D00421816393
:1004C00001243DE001680A6822F00E020A6001681A
:1004D0000A6822F001020A601A4A0168914201D1B9
:1004E000012121E0174A1432914201D110211BE071
:1004F000144A2832914201D1891515E0114A3C3243
:10050000914201D189140FE00E4A5032914202D13A
:100510004FF4803108E00B4A6432914202D14FF42B
:10052000801101E04FF08071064A083A51600121C4
:1005300080F82110002180F82010416B01B188471C
:10054000204610BD0800024070B5044600F00EFAC7
:100550000546601C02D004480078044400F006FA06
:10056000401BA042FAD370BD2C0000202DE9F047BB
:10057000054626480F460126017E01290FD001219C
:10058000814601762868DFF888804CF250340228D2
:1005900008D0A2462046FFF7B7FEA8B131E00220FE
:1005A000BDE8F0872046FFF7AFFE08BB0120FFF74C
:1005B0004BFE2046FFF7A8FED8F81010064621F0A3
:1005C0000401C8F810101CE04FF0FF303860AC6830
:1005D00011E02046FFF74AFE5046FFF795FED8F897
:1005E0001010060021F00201C8F8101001D03C6084
:1005F00007E004F58064D5E9020100EB8120A04208
:10060000E7D8002189F818103046C9E7E002002039
:10061000002002400348016941F08001016100208F
:1006200070470000002002402DE9F05F07461C489B
:1006300088460024017E15461E46012909D0012165
:10064000814601764CF2503A5046FFF75DFE18B1F4
:1006500022E00220BDE8F09F012F02D0022F00D03F
:100660000427D346DFF83CA0220128463146FFF795
:1006700059FD81B208EB4400FFF70AFE5846FFF728
:1006800043FEDAF8102022F00102CAF8102018B94F
:10069000641CE4B2BC42E7D3002289F81820D9E7F1
:1006A000E002002000200240064900200A691206EC
:1006B00007D5054A4A60054A4A600969090600D516
:1006C000012070470020024023016745AB89EFCD30
:1006D0001B4B0121A3F11402402828D009DC082873
:1006E0001DD010281FD0202829D11971917015A074
:1006F00024E080281FD0B0F5805F06D0B0F5004F11
:100700001DD15970917010A018E0197091700FA050
:100710001061642302220EA10E4800F01BBE9970E6
:1007200091700DA00AE0D97091700CA006E059718B
:1007300091700BA002E0997191700AA0106170474E
:1007400018000020543600005433000054320000DA
:100750004F4B00009400002054340000543500003A
:1007600054370000434E0000044910B50A680242A5
:1007700002D00860FFF7ACFF10BD00001404014078
:100780002DE9F84FDFF8B891002409F1040A0AF1C5
:10079000040B23460F270BF1040EC9E00125A540E9
:1007A0002A40AA427DD1674ED1F804C0ACEB0608BE
:1007B000B44532D014DCBCF1030F3AD009DCBCF1F3
:1007C000000F2AD0BCF1010F1CD0BCF1020F31D1B7
:1007D0001DE0BCF1110F17D0BCF1120F2AD119E0A6
:1007E000B8F5881F19D006DCB8F5803F15D0B8F5EC
:1007F000801F1FD111E0B8F5001F0ED0B8F5041FFF
:1008000018D10AE0CB6815E0CB681B1D12E0CB685D
:1008100008330FE0CB680C330CE08B682BB1012B55
:100820004FF0080303D0456104E0042302E00561B2
:1008300000E00023FF2A01D8064601E000F104068B
:100840004FEA840501D9A5F12005D6F8008007FA02
:1008500005FC28EA0C0803FA05F548EA0508C6F87D
:1008600000804D68ED0062D5374DAE6946F0010657
:10087000AE61AD6924F0030605F001050095334D26
:1008800006EB050CDCF80850A607360F07FA06F849
:1008900025EA0805DFF8B880404503D14FF000088D
:1008A00017E044E0DFF8AC80404502D14FF001088A
:1008B0000FE0DFF8A480404502D14FF0020808E0C5
:1008C000DFF89880404502D14FF0030801E04FF077
:1008D000040808FA06F848EA0508CCF808804D68CC
:1008E000D9F80060ED034D4601D5164300E096436C
:1008F0002E604D68DAF80060AD03554601D5164309
:1009000000E096432E604D68DBF80060ED025D4626
:1009100001D5164300E096432E604D68DEF8006076
:10092000AD02754601D5164300E096432E60641C67
:100930000D682A46E5407FF431AFBDE8F88F00002E
:1009400000040140000011100010024000000140AE
:1009500000080140000C014000100140001401405B
:100960000AB1016170470904FBE700000148806893
:10097000704700002C000020024881680278114472
:10098000816070472C000020074810B5016841F0D5
:1009900010010160032000F085F8002000F006F847
:1009A00000F024F8002010BD0020024070B50D4D6D
:1009B00004464FF47A712878B1FBF0F00A490968CF
:1009C000B1FBF0F000F013FB48B9102C07D2002265
:1009D0002146501E00F046F800206C6070BD0120DA
:1009E00070BD00002C000020380000200C4808B525
:1009F000816941F001018161816901F0010100918A
:100A0000C16941F08051C161C06900F0805000901F
:100A10000448416821F0E06141F00071416008BD87
:100A2000001002400000014000280DDB00F01F0212
:100A3000012191404009800000F1E020C0F88011C0
:100A4000BFF34F8FBFF36F8F7047002809DB00F0B3
:100A50001F02012191404009800000F1E020C0F810
:100A600000117047F0B40E4B1B680C46C3F3022311
:100A7000C3F10705042D00D90425191D072901D24A
:100A8000002300E0DB1E012606FA05F1491E214085
:100A900099409E40761E16403143F0BC00F078BE6F
:100AA0000CED00E0064900F0070208684FF6FF036E
:100AB000184040EA0220034A1043086070470000D3
:100AC0000CED00E00000FA050648026822F004027E
:100AD0000260012903D040BF20BF20BF704730BF54
:100AE0007047000010ED00E02DE9F0470F460500CB
:100AF00061D0434E306800F00700B84209D2306838
:100B000020F0070038433060306800F00700B8423A
:100B100051D128683B4C810712D5400703D5606846
:100B200040F4E06060602878000703D5606840F416
:100B3000605060606068A96820F0F0000843606061
:100B40002878C00728D06868012810D021680228BA
:100B500010D0890700292EDA616821F003010143D2
:100B60006160FFF703FF804641F288390DE021689C
:100B70008903EFE78901EDE7FFF7F8FEA0EB080135
:100B8000494502D90320BDE8F0876068696800F034
:100B90000C00B0EB810FEFD1306800F00700B842D5
:100BA0000BD9306820F0070038433060306800F01F
:100BB0000700B84201D00120E5E72878400705D5B5
:100BC0006068E96820F4E060084360602878000706
:100BD00006D56068296920F4605040EAC100606071
:100BE00000F038F86168084AC1F30311515CC8404D
:100BF0000649086006480068FFF7D8FE0020C2E7F3
:100C00000020024000100240582700083800002051
:100C1000300000200448054900684968044AC1F3CF
:100C20000221515CC840704738000020001002408B
:100C3000682700080448054900684968044AC1F368
:100C4000C221515CC84070473800002000100240AB
:100C50006827000812A185B00FC98DE80F0014A005
:100C6000144A006804905168134801F00C03042BE7
:100C700010D0082B0ED1C1F38343C9031DF8030024
:100C80000AD5516804AAC1F34041515C0A4A504355
:100C9000B0FBF1F005B0704708494843FAE700009F
:100CA00002030405060708090A0B0C0D0E0F1010AD
:100CB000010200000010024000127A0000093D000D
:100CC0002DE9F84F040070D02078C04DC00749D0FE
:100CD0006868C0F38100012807D06868C0F381000C
:100CE000022809D16868C00306D52868800339D571
:100CF00060680028E7D035E06068B0F5803F0BD031
:100D000010B1B0F5A02F11D0286820F480302860F1
:100D1000286820F4802002E0286840F480302860B1
:100D2000606890B1FFF722FE06460AE0286840F4AA
:100D300080202860F0E700BFFFF718FE801B6428C2
:100D400073D828688003F7D50CE0FFF70FFE06463E
:100D500005E000BFFFF70AFE801B6428F0D8286872
:100D60008003F7D420789A4E80074FF001094FF0A6
:100D7000000839D5686810F00C0F07D06868C0F318
:100D80008100022809D16868C00306D4286880075A
:100D900014D52069012808D110E02069B0B1C6F847
:100DA0000090FFF7E3FD074605E00AE1FFF7DEFDEF
:100DB000C01B0228C4D828688007F7D52868616955
:100DC00020F0F80040EAC10028600DE0C6F800807D
:100DD000FFF7CCFD074604E0FFF7C8FDC01B022863
:100DE00023D828688007F7D4207800072CD57948C5
:100DF000A169D9B1C0F80090FFF7B8FD074604E03B
:100E0000FFF7B4FDC01B02280FD8686A8007F7D52A
:100E100071484FF4FA510068B0FBF1F0009000BF48
:100E20000098411E0091FAD20EE080E0C0F80080E8
:100E3000FFF79CFD074604E0FFF798FDC01B022862
:100E400075D8686A8007F7D42078400760D5E869CC
:100E50000027C00008D4E86940F08050E861E869E4
:100E6000012700F0805000905C480168C90513D448
:100E70000168834641F480710160FFF777FD824687
:100E800006E000BFFFF772FDA0EB0A0064284ED811
:100E9000DBF80000C005F5D5E06801280AD008B1EC
:100EA000052813D0286A20F001002862286A20F063
:100EB000040002E0286A40F001002862E06841F284
:100EC000883B98B1FFF752FD82460BE0286A40F05C
:100ED00004002862EEE700BFFFF748FDA0EB0A011F
:100EE00059455AD8286A8007F6D50CE0FFF73EFD31
:100EF000824605E0FFF73AFDA0EB0A0159454CD8C0
:100F0000286A8007F6D41FB1E86920F08050E861B4
:100F1000E06988B36968C1F38101022944D00228DD
:100F2000C6F8608004D0FFF721FD044638E034E0C5
:100F3000FFF71CFD074604E0FFF718FDC01B022861
:100F40002BD828688001F7D4206AB0F5803F05D1FE
:100F50006868A16820F4003008436860D4E908019B
:100F60000843696821F4741108436860C6F860900A
:100F7000FFF7FCFC044606E025E000BFFFF7F6FCA7
:100F8000001B022809D828688001F7D51BE000BFA4
:100F9000FFF7ECFC001B022802D90320BDE8F88F04
:100FA00028688001F4D40EE00128F7D06868226A2E
:100FB00000F48031914204D1616A00F470108842DB
:100FC00001D00120EAE70020E8E70000001002401D
:100FD000000042428004424238000020007000407D
:100FE0004FF0E020016941F002010161704710B546
:100FF000401EB0F1807F01D3012010BD4FF0E024EE
:1010000060610F21601700F0C3FB0020A061072082
:101010002061002010BD4FF0E020016921F00201A5
:10102000016170477047000070B50268044610689F
:10103000D168536910F00F0F52D003F0010501F48D
:1010400090762E435FD0C20705D0CA0503D5E26B68
:1010500042F00102E263420705D5DA0703D0E26BF2
:1010600042F00202E263820705D5DA0703D0E26BA1
:1010700042F00402E263020707D501F020022A438E
:1010800003D0E26B42F00802E263E26B002A33D045
:10109000800604D5880602D5204600F083FA206831
:1010A0004069E16BC0F38010090700D428B32046E3
:1010B00000F06AFA2068416949061AD5416921F0B1
:1010C00040014161606BA0B12D494163606BFFF746
:1010D000EFF9002810D0606B416BBDE87040084705
:1010E000830610D58B060ED52046BDE8704000F073
:1010F00059BA2046FFF796FF70BD2046FFF792FFD2
:101100000020E06370BD03062BD50B0629D594F8AB
:1011100039002128F6D1A068B0F5805F01D120699F
:10112000B0B1206A411C2162216800784860E08CDF
:10113000401E0004000CE084E4D12068C16821F066
:101140008001C1602068C16841F04001C16070BD8C
:10115000206A0088C0F308005060206A801C20626A
:10116000E5E74006F3D54806F1D5D168204621F0E1
:101170004001D160202184F8391000F044F970BD9D
:101180007915000870B5040004D094F839000025E2
:1011900010B106E0012070BD84F83850204600F000
:1011A00023F8242084F839002068C16821F4005114
:1011B000C160204600F03CFA2068016921F49041AA
:1011C00001612068416921F02A0141612068C168FC
:1011D00041F40051C160E563202084F8390084F8AF
:1011E0003A00002070BD000070B586B00024009465
:1011F0000194029403942E4E03682E490220032288
:101200002D4DB34226D18B6943F480438B618B69AA
:1012100003F4804304938B6943F004038B61896971
:10122000039201F0040104910102CDE90010694626
:101230002846FFF7A5FA2815CDE900046946284697
:101240000294FFF79DFA002211462520FFF70AFCC1
:10125000252028E0194EB34227D1CB6943F400334F
:10126000CB61CB6903F4003304938B6943F004032F
:101270008B618969039201F0040104910421CDE995
:10128000001069462846FFF77BFA0820CDE90004E4
:10129000694628460294FFF773FA002201212620AE
:1012A000FFF7E0FB2620FFF7D0FB06B070BD000083
:1012B0000038014000100240000801400044004096
:1012C00090F83A30202B22D1F9B1F2B190F83830B1
:1012D000012B1CD081628285C2850021C16322223C
:1012E00080F83A2080F838100168CA6842F48072A9
:1012F000CA6001684A6942F001024A610068C16837
:1013000041F02001C1600020704701207047022099
:101310007047000010B500680A49884210D10A4C95
:101320000A48217800F0C3FA2178094800F032FC1D
:10133000214607480122BDE810408038FFF7C0BFB2
:1013400010BD00000038014004000020D80100203A
:10135000D40000202DE9F843044690F839001F46D8
:1013600016460D4620284CD1C5B1BEB194F83800C0
:10137000012846D0012084F838004FF00008C4F856
:101380003C80212084F83900FFF7F0FAA6848146DA
:10139000E684A068B0F5805F03D004E00120BDE8DA
:1013A000F883206928B12E465FF0000584F8388064
:1013B0000EE00026FAE78021204600F095F9A0B95A
:1013C000AEB116F8010B21684860E08C401EE08445
:1013D000E08C4B464FF0000200970028EBD14FF015
:1013E0004001204600F080F930B10320D7E735F8FE
:1013F000020BC0F30800E6E7202084F83900002043
:10140000CDE70220CBE77047FEE70000F0B585B0DE
:10141000002000900190029003903B48816941F0C8
:1014200010018161816901F010010491816941F02D
:1014300020018161816901F020010491816941F0FD
:1014400004018161816901F004010491816941F025
:101450000801816180692D4E00F008004FF40054AE
:101460000490002221463046FFF77AFA0122284FE5
:10147000D50229463846FFF773FA0094012402206A
:10148000CDE90240694601943046FFF779F9CDE98C
:1014900000540294694638460394FFF771F91D4DD4
:1014A0004FF41040CDE90005694602943846FFF735
:1014B00067F9F820CDE90005694602941648FFF760
:1014C0005FF9002202210920FFF7CCFA0920FFF77B
:1014D000BCFA002203210A20FFF7C4FA0A20FFF712
:1014E000B4FA002204211720FFF7BCFA1720FFF7F7
:1014F000ACFA002205212820FFF7B4FA2820FFF7D4
:10150000A4FA05B0F0BD0000001002400010014038
:101510000008014000002110000C0140FEE7704768
:1015200070477047FFF728BA30B58FB0282168465A
:10153000FEF70FFE14210AA8FEF70BFE0121080496
:10154000CDE900100024029402250491CDE9075052
:101550004FF4E01009906846FFF7B2FB0F20CDE989
:101560000A056802CDE90C4002210AA80E94FFF793
:10157000BBFA0FB030BD704710B5406A0021C1857D
:10158000C184FFF74FFD10BD0168CA6822F4907254
:10159000CA6001684A6922F001024A61202180F88C
:1015A0003A10704710B590F83A10222901D0022065
:1015B00010BD82684FF480539A4201D1016921B174
:1015C000816A9A421BD04AB10AE00268816A526875
:1015D000C2F308020A80816A891C08E0026972B1BC
:1015E0000268526802F07F020A70816A491C8162B7
:1015F000C18D491E0904090CC18503D016E002689B
:101600005268F1E70168CA6822F02002CA600168E6
:10161000CA6822F48072CA6001684A6922F0010235
:101620004A61202180F83A10FFF774FE002010BDB7
:1016300070B5044600680169E26821F44051114325
:1016400001612169A0680843616908432168CA688B
:1016500041F20C639A430243CA6020684169A2695F
:1016600021F44071114341611E492068884202D132
:10167000FFF7E0FA01E0FFF7CDFA00EBC00101EB64
:101680000012606864218000B2FBF0F3B3FBF1F359
:101690006FF018067343B2FBF0F5B2FBF0F605EB02
:1016A0008305322303EB0515B5FBF1F5B6FBF1F627
:1016B00005F0F00505EB0615B2FBF0F6B2FBF0F015
:1016C000B0FBF1F06FF01802504306EB800003EB23
:1016D0000010B0FBF1F0216800F00F002844886092
:1016E00070BD0000003801402DE9F04198461746D2
:1016F0000E460446069D1DE0681C1BD02DB1FFF769
:1017000035F9A0EB0800A84214D92068C16821F47B
:10171000D071C1602068416921F001014161202040
:1017200084F8390084F83A00002084F83800032057
:10173000BDE8F0812068006836EA000004D000208F
:10174000B842D9D00020F3E70120F9E70148FFF7BC
:101750006BBC0000540000200148FFF765BC00008E
:1017600094000020FEE700000FB4084B10B504A958
:1017700002AA039800F02BF8044602A9002000F00A
:1017800091F8204610BC5DF814FB0000A518000875
:101790000907090E002804DB00F1E02080F800149E
:1017A000704700F00F0000F1E02080F8141D704732
:1017B00002E008C8121F08C1002AFAD1704770471A
:1017C000002001E001C1121F002AFBD170472DE962
:1017D000F84F9946924688460546002706E0252898
:1017E0000AD051464A4690476D1C7F1C2878002835
:1017F000F5D13846BDE8F88F002315F8011F1846CB
:101800002E2915D115F8011F04232A290DD06FF0B8
:101810002F022978A1F13004092C09D800EB8000AF
:1018200002EB400008446D1CF3E758F8040B6D1CF4
:101830002A78002ADDD0632A07D0732A0FD01046F9
:1018400051464A4690477F1C2AE018F8042B8DF831
:10185000002000218DF801106E46012103E058F8A8
:10186000046B4FF0FF315A074FF0000401D409E038
:10187000641C84420BDA8C42FADB325D002AF7D119
:1018800005E0641C8C42FCDB305D0028F9D1274464
:1018900004E016F8010B51464A469047641EF8D200
:1018A0006D1CA3E70A68531C0B6010707047036837
:1018B000021D99540168FF2901DA491C0160704733
:1018C00070B5044607A508A1001DFEF74DFC30B118
:1018D0002946201DFEF748FC08B1012070BD0020FC
:1018E00070BD00004F4B00002B434F5053000000D1
:1018F00010B504A1001DFEF737FC002800D0012020
:1019000010BD00004552524F5200000010B504A116
:10191000001DFEF729FC002800D0012010BD0000AA
:101920004F4B000010B501782B2905D1FEF72EFC96
:101930000C2801D8012010BD002010BD002102C0DC
:101940004FF48071FEF705BC70B5002441F2883574
:1019500013E06423112227A12B48FFF7FBFC2B483F
:10196000FFF7ECFF28484030FFF7E8FF012070BD8B
:101970002846FEF7E9FD052C17D02448641CFFF724
:10198000DDFF21484030FFF7D9FF1F4864230A22BA
:101990001FA14038FFF7DEFC6420FEF7D5FD1B4891
:1019A000FFF78EFF0028E3D0D3E7642314221BA1A6
:1019B0001548FFF7CFFC1F4D4FF40064002221466D
:1019C0002846FEF7CDFF6E20FEF7BEFD0122214620
:1019D0002846FEF7C5FF6423152217A10A48FFF722
:1019E000B9FC0A48FFF7AAFF07484030FFF7A6FFF7
:1019F000002070BD53656E642041542B434F5053FB
:101A00003F206F6B0A00000094000020D8010020E6
:101A100041542B434F50533F0D0A000053656E64F1
:101A20002041542B434F50533F206572726F720A0E
:101A300000000000000801405265736574206D6F5E
:101A400064756C652073696D206F6B210A0000005E
:101A500070B50646FEF79AFB032810D300252C46E6
:101A600004E0305D802800D36D1C641C3046FEF716
:101A70008DFBA042F5D8022D01DD012070BD0020B4
:101A800070BD000010B50948FFF758FF0848FFF780
:101A900055FF07487823142206A18038FFF75AFC27
:101AA000BDE810403220FEF74FBD0000D8010020F5
:101AB000D400002041542B434D4744413D2244452E
:101AC0004C20414C4C220D0A0000000010B5094882
:101AD000FFF734FF0848FFF731FF074864230C2263
:101AE00006A18038FFF736FCBDE810406420FEF701
:101AF0002BBD0000D8010020D400002041542B430E
:101B000053434C4B3D320D0A0000000010B56423D6
:101B1000042209A10A48FFF71DFCC820FEF714FDA6
:101B200064230C2207A10648FFF714FCBDE810400F
:101B3000C820FEF709BD000041540D0A0000000056
:101B40005400002041542B4353434C4B3D300D0A6D
:101B50000000000070B506460020087048700D4671
:101B60008870044604E0301900792C2806D0641CE3
:101B7000301DFEF70BFBA042F5D870BD0022A01867
:101B8000304440792C28F8D0A854521C032AF6DBA4
:101B900070BD000070B5104E0D460446232906D0D6
:101BA0000020402D01D0802D08D3306070BD012071
:101BB00030602046FFF7C2FE2B20207130680128DC
:101BC000F4D1232DF2D02168601D0D542068FF2828
:101BD000ECDA401C206070BD000000202DE9F041CF
:101BE00005460E460846FEF7D1FA01463046FEF796
:101BF000B0FA0BA12846FEF7B7FA471B7C1C07E09A
:101C0000285D222809D0E11B3144641C01F8010C35
:101C10002846FEF7BBFAA042F2D8BDE8F0810000EA
:101C2000222B00001FB5FEF7AFFEFFF77DFCFFF78C
:101C3000EDFBFF48FD494FF4165500240160C0E953
:101C400001540C26C460C0E904468461C461FFF7F6
:101C500099FAF748F74940300160C0E90154C4607F
:101C6000C0E904468461C461FFF78CFA0122F2499D
:101C7000EF48FFF725FBF049ED480122491C4030B1
:101C8000FFF71EFB41F28830FEF75EFCE84818388B
:101C9000FEF7D8FBE6481838FEF778FAE44982B236
:101CA0001839642301F15800FFF754FBE048E24C77
:101CB000183800782B2804D0DD48E1681838FEF782
:101CC0007AFADB49DC4818391B30FEF774FAD84839
:101CD0001838FEF75BFAD64982B21839642301F14D
:101CE0005800FFF737FBD4481B30FEF74FFA82B29B
:101CF000D149CF4864231B314030FFF72BFBCF483D
:101D0000FFF71CFECA488030FFF718FE64230B2241
:101D1000CBA1C748FFF71EFB6420FEF715FC642328
:101D20001322CAA1C248FFF715FB6420FEF70CFC82
:101D3000FFF7A8FEC148FFF701FEBD488030FFF75E
:101D4000FDFDBB4864230822C5A14030FFF702FB1C
:101D5000B74EBA4D803601274FF4FA7A4FF0020998
:101D6000C2A1301DFEF719FA00287DD1B0486423C6
:101D70000E22C0A14030FFF7EDFA4FF0000884F8C2
:101D80000280281DFEF702FA82B2A948C823291D45
:101D90004030FFF7DFFAA649281D0C39FFF71EFF78
:101DA000A348C8230822B7A14030FFF7D3FAB8A050
:101DB0009F4A006800900C3AB6A16846FFF7D4FC31
:101DC0006846FEF7E3F982B29948C8236946403075
:101DD000FFF7C0FA281DFFF73BFE40B1944864238B
:101DE0001322B0A14030FFF7B5FA677101E084F823
:101DF00005809248FFF7A2FD8D488030FFF79EFDD9
:101E0000D7E200BFFFF7A0FD0028F9D0884864237F
:101E10000E22A9A14030FFF79DFA64230B2288A16E
:101E20008348FFF797FA3220FEF78EFB8348FFF7CF
:101E300085FD7F488030FFF781FD95A07C4A0068D2
:101E400001900C3A93A101A8FFF78EFC01A8FEF7C0
:101E50009DF982B2642301A97548FFF77BFA32200D
:101E6000FEF772FB642300E0A2E21C2296A17048F8
:101E7000FFF770FA3220FEF767FB6F4964230122F7
:101E8000891D6B48FFF766FA0A20FEF75DFB00200C
:101E90002071674864230E2293A14030FFF75AFA5D
:101EA000281DFEF773F982B261486423291D403072
:101EB000FFF750FA5046FEF747FB6048FFF726FD54
:101EC00088B15B48642311228BA14030FFF742FAAE
:101ED000281DFEF75BF982B255486423291D403066
:101EE000FFF738FA27715548FFF702FDC0B1DFF858
:101EF0001CB24FF400682771002241465846FEF795
:101F00002FFD6420FEF720FB012241465846FEF7D4
:101F100027FD474864231D227DA14030FFF71AFAB0
:101F2000281DFFF795FD08B1277102E020790128EF
:101F3000AFD14248FFF702FD3D488030FFF7FEFC7D
:101F400064230B223EA13A48FFF704FA6420FEF70F
:101F5000FBFA642313223DA13548FFF7FBF9642007
:101F6000FEF7F2FA3548FFF7E9FC31488030FFF719
:101F7000E5FC4FF0000B84F803B084F804B0301D8A
:101F8000FEF704F982B22A486423311D4030FFF77E
:101F9000E1F9281DFEF7FAF882B22548C823291D69
:101FA0004030FFF7D7F9224864231C2260A140305B
:101FB000FFF7D0F94FF49670FEF7C6FA301DFFF721
:101FC000B1FC50B11A486423142261A14030FFF7DC
:101FD000C1F9E7706420FEF7B7FAE0780128CED1A6
:101FE000301DFEF7D3F882B211486423311D403012
:101FF000FFF7B0F90E49281D0C39FFF7EFFD6420FB
:10200000FEF7A2FA0A486423192257A14030FFF7CD
:10201000A1F907480C38FEF7B9F8054982B20C3926
:10202000642301F14C00FFF795F9ABE00038014063
:10203000540000200044004004000020D80100208B
:1020400041542B434D47463D310D0A0041542B432B
:102050004E4D493D312C322C302C302C300D0A00A5
:10206000496E6974204F4B0A000000002B746473A2
:10207000647400004368616E67652070686F6E6508
:10208000210A00002D2D2D2D2D2D2D2D00000000BD
:102090003000000041542B434D47533D222573220D
:1020A0000D0A0000476172626167652063686172B2
:1020B0006163746572210A00436865636B2053494C
:1020C0004D206F6B210A0000536F616E20637520F5
:1020D00070686170203A20235A5A78787878787836
:1020E0007878784000000000436865636B696E672C
:1020F00020627566660A000053656E64206D657324
:1021000073616765206F6B210A00000000080140C1
:102110004552524F52202D205265736574206D6FC9
:1021200064756C652073696D206F6B210A00000077
:102130007761697474696E6720636865636B20708A
:10214000686F6E65206E756D6265720A0000000032
:102150004765742070686F6E65206E756D6265727C
:10216000206F6B0A000000004765742070686F6E76
:1021700065206E756D62657220726F6F74206F6B73
:102180000A000000FEF7EAF8301DFEF7FDF8FE49F0
:10219000FE48FEF710F8FC480C38FEF753F93220E1
:1021A000FEF7D2F9F8480C38FDF7F0FFF64982B295
:1021B0000C39642301F15800FFF7CCF8F448FFF71D
:1021C000BDFBF1488C30FFF7B9FB64230B22AFF263
:1021D0009011ED480C30FFF7BDF83220FEF7B4F94E
:1021E000E94864230E22EBA14C30FFF7B3F86420DA
:1021F000FEF7AAF9E648FFF7A1FBE3488C30FFF7AA
:102200009DFBAFF274100068E04AAFF278110290C3
:1022100002A8FFF7A9FA02A8FDF7B8FF82B2DA48D0
:10222000642302A90C30FFF795F83220FEF78CF9F1
:10223000AFF2A4100068D44A03900C3AD9A103A8C5
:10224000FFF792FA3220FEF77FF903A8FDF79EFF11
:1022500082B2CD48962303A90C30FFF77BF83220D9
:10226000FEF772F9C949C8486423012215390C30B8
:10227000FFF770F80A20FEF767F9A04665E06423CF
:102280000E22AFF29C11C0484C30FFF763F8504665
:10229000FEF75AF9BE48FFF739FB28B36423112231
:1022A000AFF2AC11B8484C30FFF754F8281DFDF7D9
:1022B0006DFF82B2B4486423291D4C30FFF74AF801
:1022C00088F8049088F802B0B148FFF737FBAE48B1
:1022D0008C30FFF733FBAC4864231622BCA14C3092
:1022E000FFF738F8FFF7F2FBA948FFF701FBF0B161
:1022F000A748FFF723FBA4488C30FFF71FFB88F8A3
:10230000049000224FF40061B748FEF729FB6420D7
:10231000FEF71AF90122D102B348FEF721FB64232C
:102320001D22AFF2142198484C30FFF713F8281DF6
:10233000FFF78EFB48B19648FFF700FB92488C30C0
:10234000FFF7FCFA88F8049003E098F804000228EC
:1023500095D18F48FFF7F2FA8B488C30FFF7EEFAF1
:102360008A496423C91F0B2281F802B081F804B0A6
:1023700081F806B088F802B088F804B0AFF24031B6
:1023800081480C30FEF7E6FF6420FEF7DDF8642399
:102390001322AFF248317C480C30FEF7DBFF64209B
:1023A000FEF7D2F898F8030001287FF4E8AD6771D2
:1023B00003E0607901287FF425ADA07801287DD164
:1023C0000920FEF731FB0A20FEF72EFB1720FEF74F
:1023D0002BFB2820FEF728FB6D48FFF7AFFA6A4871
:1023E0008C30FFF7ABFAFFF7AFFA002867D04FF059
:1023F0000008642384F804800B22AFF2BC316248E9
:102400000C30FEF7A7FF3220FEF79EF86048FFF77A
:1024100095FA5D488C30FFF791FA5B4864230822F7
:1024200072A10C30FEF796FF6420FEF78DF8574935
:1024300057481439FFF78EFB281DFDF7A7FE82B21F
:1024400051486423291D4C30FEF784FF5048FFF7A4
:1024500075FA4D488C30FFF771FA4C494A486423AD
:10246000032214394C30FEF775FFAFF2DC30464AD8
:1024700000680C3AAFF2E431019001A8FFF774F95B
:102480001420FEF761F801A8FDF780FE82B23E48F5
:10249000642301A90C30FEF75DFF5046FEF754F8A7
:1024A000AFF214400068029053A0384B0090143BE8
:1024B00052A102A82269FFF757F901E004E1FFE009
:1024C0001420FEF741F802A8FDF760FE82B22E4804
:1024D000642302A90C30FEF73DFF5046FEF734F8A6
:1024E0002A4929486423012215390C30FEF732FFAE
:1024F0000A20FEF729F8CFE064230E22AFF218413C
:1025000021484C30FEF726FF281DFDF73FFE82B222
:102510001D486423291D4C30FEF71CFF40F6B830DF
:10252000FEF712F81A48FFF7F1F928B364231122D5
:10253000AFF23C4114484C30FEF70CFF281DFDF76C
:1025400025FE82B210486423291D4C30FEF702FF9D
:1025500084F8049084F802800D48FFF7EFF90A48E8
:102560008C30FFF7EBF908486423162218A14C3091
:10257000FEF7F0FEFFF7AAFA0548FFF7B9F908B130
:10258000281D4DE073E00000480000201F000020DF
:10259000D8010020456469742070686F6E65206FF3
:1025A0006B0A0000486F70207468756F6320646167
:1025B000206B6574206E6F692064656E20736F20D8
:1025C0006469656E2074686F61692025730000007E
:1025D000456E74657220736C656570206D6F6465FF
:1025E0002053494D210A00000008014041542B436B
:1025F00042430D0A0000000025000000486F7020D3
:1026000025732064616E672064756F63206D6F2190
:102610002E2050696E203D20257325732E0000006A
:10262000FDF7B4FD82B26423291D3648FEF792FE01
:102630003548FFF783F933484030FFF77FF94FF40F
:10264000006B84F80490002259463048FEF788F960
:102650006420FDF779FF012259462C48FEF780F9E6
:1026600064231D22AFF258512648FEF773FE281D41
:10267000FFF7EEF980B12448FFF760F921484030B8
:10268000FFF75CF964231322AFF2E8511D48FEF70F
:1026900061FE84F8049003E0207902287FF42CAFD7
:1026A0000920FEF7D2F90A20FEF7CFF91720FEF72E
:1026B000CCF92820FEF7C9F984F8028084F8048058
:1026C00040F6B830FDF740FF6423162210A10D48F4
:1026D000FEF740FEFEF79FFC01210020FEF7F4F913
:1026E000FEF77EFC642315220FA10648FEF732FE9A
:1026F0006423152212A10348FEF72CFEFFF706FA09
:10270000FFF72EBB94000020D801002000080140F4
:10271000456E74657220736C656570206D6F6465BD
:102720002073746D210A00004578697420736C650C
:102730006570206D6F64652073746D210A00000060
:102740004578697420736C656570206D6F646520D1
:1027500053494D210A000000000000000000000065
:102760000102030406070809000000000102030437
:10277000300000002B3834333634333439353833B5
:1027800000000000A4270008000000203C0000001A
:10279000B0170008E02700083C000020C406000035
:1027A000C0170008000000000000000000001A0030
:1027B00000000000742700087027000800000000D7
:1027C00000000030000000000000000000000000D9
:1027D0000100000010000000000000000024F400D0
:04000005080000ED02
:00000001FF
